:02000004C0D06A
:10000000B0B58CB062B6134C0021B022204600F08F
:1000100081FF00F0CFFE01AD284604F0AFF828853F
:1000200080B2002806D01028EED000F09FFE0020FD
:100030000CB0B0BD01A800F0C0FE01F05FF90020D7
:1000400003F000FC012003F0FDFB00F08FFA00F04C
:10005000C7FDC0460019002070B502297ED2107875
:1000600053781B0203439078D278120202431004A3
:1000700018433D4C206001200022002900D010468A
:100080002071A01D00290CD038A1102200F04BFFD8
:1000900020462E3039A1052200F045FF2268333476
:1000A0000BE039A1112200F03EFF20462E303BA18B
:1000B0000A2200F038FF226838340023204603F07B
:1000C000F3FD20182FA1022200F02DFF049C364DD5
:1000D00037487844286005206860364878442861AD
:1000E0000026EE6003202876EE612846183002F0E4
:1000F000AFFCE86101F0EAFD01F020F901F024F91C
:10010000AE602868002824D0E869284988421ED1BA
:100110001FE0686886421CD202F0F4FC002818D167
:10012000A868E968382670432A681018002902D0A8
:100130008847002807D0012803D1A86846432868CB
:10014000801900F02DFAA868461CAE6028680028C7
:10015000DFD1206810210143216070BD014800F00B
:1001600096FFC046016B0000B019002047656E6520
:1001700072617465205075626C6963004B6579200B
:10018000230000003F00000047656E6572617465E2
:1001900020416464726573730000000066726F6DC5
:1001A000204B65792023000000190020445010B036
:1001B00042410000D9000000F0B595B05C4988428A
:1001C0000AD05C49884200D0AFE06748002100F0C7
:1001D000D7F900F0CBF9A8E057480068002102AE3B
:1001E0000191324603F0ACFB544D2846314603F0F2
:1001F000FBFC5E4F7F445E4C7C4451A28723384613
:10020000214601F065FD20352846314603F0CAFC41
:100210008A23384621464AA201F05AFD09242003C8
:10022000342100F0ADF9444B981D524979442246DF
:100230001C4600F078FE2079002811D04E48784402
:100240004E4979443EA2932301F042FD20465630A8
:100250004C22294600F067FEA220019921540EE0AD
:10026000474878444749794435A2992301F030FD45
:100270002046563031492022002303F0D5FC204689
:10028000A330214656310C2200F04DFEAF20002550
:10029000255465713C4878443C49794428A2A123FF
:1002A00001F016FD2E4C3A4878442060052060602D
:1002B00038487844206138487844E060032020764C
:1002C000E5612046183002F0C3FBE06101F0FEFC5E
:1002D00001F034F801F038F8A5602068002824D037
:1002E000E069204988421ED11FE0606885421CD227
:1002F00002F008FC002818D1A068E168382568439E
:1003000022681018002902D08847002807D0012849
:1003100003D1A06845432068401900F041F9A06866
:10032000451CA56020680028DFD1002015B0F0BD75
:100330000200008001000080B0190020001D002094
:1003400075695F6765745075626C69634B65795F49
:10035000617070726F76655F627574746F6E0000A5
:1003600000190020445010B0856900003841000099
:100370004241000021410000EE400000F840000032
:10038000CA400000D440000096400000A040000099
:10039000B0400000E70000002D020000B0B50128C9
:1003A00008DD02284DD04A4988424AD0494988424E
:1003B00007D08BE04849884200D185E0012800D071
:1003C00084E0464842790025002A294601D0511E82
:1003D0004171C9B241185631A3300C2200F0A3FD7F
:1003E00000F0ACFF00F0B0FF3D4CA5602068002895
:1003F0006CD0E0693B49884268D0002866D0002074
:100400006168884262D202F07DFB00285ED1A0685C
:10041000E1683825684322681018002902D088470F
:10042000002807D0012803D1A0684543206840195F
:1004300000F0B6F8A068401CA06021680029DFD158
:1004400044E02648037940223421002B00D10A469B
:100450004179914201D2491C4171C9B241185631CA
:10046000A3300C2200F05FFD00F068FF00F06CFF8D
:100470001B4C0020A0602168002927D0E169194A9F
:1004800091421ED122E0616888421FD202F03AFBFD
:1004900000281BD1A068E16838256843226810183D
:1004A000002902D08847002807D0012803D1A0687E
:1004B00045432068401900F073F8A068401CA06014
:1004C00021680029DFD101E000F050F80020B0BD24
:1004D000020000400100004003000080B01900202D
:1004E00000190020445010B010B50D4A51794378DE
:1004F0001279012B01D1002908D0022B0FD1402302
:100500003424002A00D12346994208D10D4878446A
:100510000D49794403A2322301F0DAFB002010BD1B
:10052000B019002075695F70726570726F5F6765E2
:10053000745075626C69634B65795F636F6D706150
:10054000726500001E3E0000283E000080B506488F
:1005500000210170012242708170092000030321F3
:1005600000F00EF880BDC046001D002080B5034994
:1005700079440020024601F01BFB80BD703F000063
:1005800080B5020A054B5A544A1C92B29854881CF2
:1005900081B2202001F0C6F880BDC046001D0020B9
:1005A00080B501F01FF880BDF0B585B0F54D287815
:1005B000F54E0C282DDD0D287BD00E2800D1B8E09B
:1005C000152800D01DE1F1480078012803D1A87951
:1005D000000700D4D9E2EE4C012020760025E56129
:1005E0002046183002F034FAE06101F06FFBE06958
:1005F000B04200D0FCE100F0A1FE00F0A5FEA56035
:100600002068002800D1B7E2E069F84988424DD15E
:10061000B2E2052800D1CDE00C2800D0F1E0F24C88
:10062000012020760026E6612046183002F010FAFC
:10063000E06101F04BFBE069EC49884200D19BE2AC
:10064000002800D198E2E749884200D029E200F072
:1006500075FE00F079FEA6602068002800D18BE2CC
:10066000E069E249884200D02CE185E26068854279
:1006700000D381E202F046FA002800D07CE2A068B4
:10068000E1683825684322681018002902D088479D
:10069000002807D0012803D1A068454320684019ED
:1006A00000F0A0FFA068451CA56020680028DDD1EF
:1006B00062E2CD4C012020760025E561204618300D
:1006C00002F0C6F9E06101F001FBE069C749884228
:1006D00000D151E2C349884200D1B1E1002800D1E4
:1006E0004AE22068002800D140E2A06861688842A0
:1006F00000D33BE202F006FA002800D036E2A06800
:10070000E1683825684322681018002902D088471C
:10071000002807D0012803D1A0684543206840196C
:1007200000F060FFA068401CA06021680029DDD1B6
:100730001CE2AD4C012020760025E56120461830F2
:1007400002F086F9E06101F0C1FAE069B04200D040
:10075000DEE000F0F3FD00F0F7FDA5602068002862
:1007600000D109E2E069A149884220D104E2606831
:10077000854200D300E202F0C5F9002800D0FBE179
:10078000A068E1683825684322681018002902D063
:100790008847002807D0012803D1A0684543206876
:1007A000401900F01FFFA068451CA56020680028C4
:1007B000DDD1E1E1F74C012020760026E6612046FC
:1007C000183002F045F9E06101F080FAE069F24981
:1007D000884200D1D0E1002800D1CDE1EC49884227
:1007E00000D098E100F0AAFD00F0AEFDA660206800
:1007F000002800D1C0E1E069E749884200D084E0E8
:10080000BAE1E44C012020760025E561204618304D
:1008100002F01EF9E06101F059FAE069B04200D03F
:10082000B8E000F08BFD00F08FFDA5602068002887
:1008300000D1A1E1E069D849884220D19CE16068FB
:10084000854200D398E102F05DF9002800D093E1E1
:10085000A068E1683825684322681018002902D092
:100860008847002807D0012803D1A06845432068A5
:10087000401900F0B7FEA068451CA560206800285C
:10088000DDD179E16068864200D375E102F03AF982
:10089000002800D070E1A068E1683825684322682C
:1008A0001018002902D08847002807D0012803D15A
:1008B000A06845432068401900F094FEA068461CDB
:1008C000A66020680028DDD156E16068864200D32A
:1008D00052E102F017F9002800D04DE1A068E1686C
:1008E0003825684322681018002902D0884700285C
:1008F00007D0012803D1A06845432068401900F0C3
:1009000071FEA068461CA66020680028DDD133E196
:100910006169002906D0642264290B4600D313467E
:10092000C91A61619C49884200D125E1002800D1A3
:1009300022E12068002800D118E1A068616888429F
:1009400000D313E102F0DEF8002800D00EE1A06829
:10095000E1683825684322681018002902D08847CA
:10096000002807D0012803D1A0684543206840191A
:1009700000F038FEA068401CA06021680029DDD18D
:10098000F4E0C04600180020555010B00C1E0020A6
:10099000001900202068002800D1E7E0A068616805
:1009A000884200D3E2E002F0ADF8002800D0DDE09C
:1009B000A068E1683825684322681018002902D031
:1009C0008847002807D0012803D1A0684543206844
:1009D000401900F007FEA068401CA06021680029B3
:1009E000DDD1C3E0555010B000190020445010B0C4
:1009F0002068002800D1B9E0A0686168884200D36F
:100A0000B4E002F07FF8002800D0AFE0A068E16811
:100A10003825684322681018002902D0884700282A
:100A200007D0012803D1A06845432068401900F091
:100A3000D9FDA068401CA06021680029DDD195E0A7
:100A400000F07CFC00F080FCA5602068002800D14C
:100A500092E0E0695049884220D18DE0606885428B
:100A600000D389E002F04EF8002800D084E0A068AE
:100A7000E1683825684322681018002902D08847A9
:100A8000002807D0012803D1A068454320684019F9
:100A900000F0A8FDA068451CA56020680028DDD1F5
:100AA0006AE0A088049020680390EE79AB796F79B2
:100AB0002A79ED78E16868460560416012023A43A0
:100AC0001B0233430398049900F0BEFC2068002801
:100AD0004CD0A0686168884248D202F013F8002820
:100AE00044D1A068E16838256843226810180029BD
:100AF00002D08847002807D0012803D1A0684543C9
:100B00002068401900F06EFDA068401CA0602168BC
:100B10000029DFD12AE02069002803D0E9784908BC
:100B200000F0A2FD2068002820D0A06861688842FB
:100B30001CD201F0E7FF002818D1A068E168382531
:100B4000684322681018002902D08847002807D07F
:100B5000012803D1A06845432068401900F042FDF8
:100B6000A068401CA06021680029DFD16068A168EE
:100B7000814201D301F0C6FF01F0C4FF002801D17A
:100B800000F092FA012005B0F0BD102000F07FFACD
:100B9000555010B000190020445010B0B0B50546B3
:100BA000072028400024012813D0022813D100294F
:100BB00008D00A4801F090FF68B2002809DA01F075
:100BC0006DFE06E0412081000448002201F0B0FFE4
:100BD00004462046B0BD022000F059FA001D002056
:100BE000F0B591B0002510950F950E95574E0DA8B4
:100BF000058002AC204603F0C1FA07462785FF2393
:100C00000E33BCB2002C1BD0102C77D002A8058567
:100C10000D3344A047A14AA201F05AF84CA0214646
:100C200001F056F80F2000033840092109038842DB
:100C300003D00321490388422ED10DA8078032E05A
:100C400002A800F0BAF80F98109000240F940E98A4
:100C50001099C0B289B200F065FD1090F82331A060
:100C600034A137A201F034F80E94109800284DD02A
:100C70003078E0284DD17078032806DC01281ED09A
:100C800002284AD1374C7C441EE004281AD0082898
:100C900043D1334C7C4417E02F4807400D20C0025D
:100CA00038430DA908800D980F994A1C0F92000A2D
:100CB00070540D980F994A1C0F9270540EE0274CF7
:100CC0007C4401E0284C7C443379F178B0780FAA59
:100CD0006F467A600EAA3A60721DA04700F0DCF9F8
:100CE00002A9884203D100F0D9F900F066F802A801
:100CF000008D002800D17AE700F0C9F902A8002190
:100D0000018508A00BA10EA200F0E2FF102000F068
:100D1000BEF93720400200F0BAF96D20000200F061
:100D2000B6F9C0460A2573202D2025733A25642084
:100D30000A0000007372632F6D61696E2E630000FC
:100D40007A696C5F6D61696E00000000001D002013
:100D5000653A25640A000000FF07000089F8FFFFDC
:100D600061170000CFF3FFFF7F13000010B58CB0B8
:100D700001AC204603F002FA20850D49084206D155
:100D800001A800F01AF80020C04301F04BFE00F06B
:100D900083F901A9884203D100F080F900F00DF831
:100DA00001A8008D002801D10CB010BD00F06FF932
:100DB000FFFF000000208146704781467047000019
:100DC000F0B581B000920F460546494B9F420FD0C7
:100DD000474C40262046314603F03AF90098402817
:100DE000024600D332462046394600F09CF8404B7C
:100DF000987801280BDC00282AD001286AD1D81C59
:100E000004211C4601F05EFD402120462BE0022813
:100E100027D005285ED11879D97809020143354ACF
:100E20001068002481425BD1334E00988019071F5F
:100E3000106800281AD03946314030480268914283
:100E400000D907683A4632402D480068591D31E004
:100E500000249C715C711C71DC7040211846A8470D
:100E60003EE023484021A847002439E09879597989
:100E70000902014323480160016841229200914226
:100E80002ED801681D4801601D491F4A0A60597823
:100E90001A7812020A431D490A601D49009A571820
:100EA000394631400268914200D907683A463240DB
:100EB000D91D154800F037F8374011480168C919A5
:100EC00001600E480168C91B01600A4801460868B4
:100ED000401C08600948016801200224002903D150
:100EE0000448002101602046C0B201B0F0BDC046F8
:100EF000801E0020F41C0020FFFF0000FC1C0020CE
:100F0000041E0020F81C0020001D0020081E0020E8
:100F1000F9FF010080B50B46002A03D011461A469E
:100F200003F0A0F880BDB0B588420DD9002A14D0D6
:100F3000491E5242401E0023DB431C4654430D5DB4
:100F40000555521CF9D108E0002A06D000239CB2B6
:100F50000D5D05555B1C521EF9D1B0BD0148002145
:100F600001607047F41C0020F0B581B0294F39684A
:100F7000002926D00090284C661D39253046294688
:100F800003F066F825480168090A2170006860705E
:100F90000520A070224A1068000AE07010682071D5
:100FA00011683868002914D014463B253B2800D826
:100FB0003D681C48016830462A46FFF7B4FF009A96
:100FC00018E01748002101601648016016480170BA
:100FD0001DE01646392800D83D683868000A60715F
:100FE0003868A0710F480168E01D2A46FFF79BFF93
:100FF000009A34460B480168491901603868401B63
:1010000038602068401C206003484021904701B0B0
:10101000F0BDC046FC1C0020801E0020081E0020E1
:10102000F41C0020041E0020221E002080B5002990
:101030000BD0064A00231360054A064B1360064A8C
:101040001160064A1160FFF78FFF80BDF41C00207D
:10105000041E0020001D0020FC1C0020F81C0020A5
:1010600070B5431E491E52420020C443002A0CD0D2
:10107000264656438D5D9E5D521CAE42F6D0002042
:10108000C1430120AE4200D80846C0B270BD80B551
:101090000146484603F07EF848467047002049461E
:1010A000002900D04869704780B501F02BFD002869
:1010B0000BD106486021017000214170022282702C
:1010C000C1700171052101F007FD80BD00180020ED
:1010D00010B51948C078032807DC01280DD0022874
:1010E00026D1164802F011F810BD04281DD008289A
:1010F0001ED1124802F007F810BD104C0121204605
:1011000001F0FCFF204601F0D8FF0D4800780028D0
:101110000FD10C48002407222146FFF7FBFE0A48A6
:101120000E222146FFF7F6FE10BD044801F0E9FF4C
:1011300010BD1020FFF7ABFF00180020C81E0020D4
:101140000C1E00200D1E0020141E00207F210140D7
:101150000148405C7047C0460D1E002010B5154880
:101160000179042917D0022906D0012920D1811D37
:10117000124801F09BFE10BDC2787F211140062964
:1011800016D8C9B24A000E4B00249C52821D0B484F
:1011900001F01AFF10BDC2787F211140062907D83F
:1011A0004279C9B2044B5A54821D044801F0ADFE85
:1011B00010BDC046001800200D1E0020C81E0020D3
:1011C000141E002070B515460E460446FF2D1AD891
:1011D0000D4850210170E91C0A0A4270817080217B
:1011E0002143C170202101714571062101F074FC79
:1011F0003046294601F070FC7F20204040007D21D0
:101200000901024A115270BD00180020141E00206E
:1012100080B50A46014682201423FFF7D3FF80BD24
:1012200080B50E480178002916D10D4906220A70B2
:101230000A2101700B4882784178090211438B081A
:1012400041229200412B00D31146074A1180128897
:10125000C11C0648FFF767FE80BDC046221E002065
:101260000C1E002000180020241E0020001D00205D
:10127000B0B51E48827841780902114300780F28E2
:1012800009DC0E280ED00F281FD10020012926D1FD
:10129000FFF71EFF22E010281BD0162815D1FFF7FC
:1012A000BFFF1BE0002012490A1A9389002B09D0C6
:1012B0006424642B1D4600D325465B1B93810D4A95
:1012C00013420DD0801C0E28EED10220FFF76CF9DE
:1012D000B0BD0020032902D3FFF740FF0120B0BDBD
:1012E0000548002101701020FFF7D1FE00180020F2
:1012F000141E0020FFFF0000221E002010B5092050
:1013000001F0B6FA07480024047007480480074833
:101310000470FFF723FE0648046006480460064890
:10132000046010BD221E0020241E00200C1E002080
:10133000281E00202C1E0020301E00200148002105
:1013400001607047281E0020024800210160024809
:10135000016070472C1E0020301E0020B0B50D46E5
:101360000446206B00280CD000F058FE01462046B1
:10137000884700F053FE0021002810D0012800D03B
:101380000446002D07D02046A8470021002806D09B
:10139000012800D004462046FFF702F90121084643
:1013A000B0BDB0B58EB00D460446606B00280CD0C1
:1013B00000F034FE01462046884700F02FFE002151
:1013C00000281BD0012800D00446002D08D020465C
:1013D000A8476C460021002810D0012800D0044600
:1013E0006D46382228462146FFF79DFD606A04902D
:1013F000A06A05902846FFF7D3F8012108460EB0F1
:10140000B0BDB0B50D460446E06A00280CD000F02F
:1014100005FE01462046884700F000FE0021002816
:1014200010D0012800D00446002D07D02046A84740
:101430000021002806D0012800D004462046FFF7EE
:10144000AFF801210846B0BDF0B587B00293039212
:101450000591002977D004900D9801900C98009088
:1014600000253C4B06952F461E4601F04BFB0028FD
:1014700055D138206843049C251833461A68012149
:10148000954200D0069906912056002841DA202086
:10149000285C0221695E0A1A039CA24239DC4118C9
:1014A000EA888918039A8A4233DA04216C5E221A88
:1014B00002998A422DDC201829894018029981421C
:1014C00027DA1868854210D0186800280DD00198D6
:1014D000002805D02846019988473346002818D0AF
:1014E00018680199FFF73AFF08E00098012809D031
:1014F00002280ED128460199FFF783FF33460028C2
:1015000007D022E028460199FFF74BFF3346002819
:101510001ED17F1CFDB205988542A5D300E033465D
:10152000069800060FD0186800280CD001F0EAFADF
:101530003146002807D108680199FFF70FFF0028FE
:1015400001D00020306007B0F0BD00201860FAE73D
:101550001D60F8E7281E0020F0B589B00C46014652
:1015600002AD1C2228460192FFF7DDFC2168E980CC
:1015700062682A81A0681A4F65233B7092B2424389
:101580008BB25343D9084E1C0722134200D10E469A
:10159000314600910426864070181D30010A79708A
:1015A000B8700321384601F097FA2846019901F0F6
:1015B00093FAA06838700121384601F08DFAE0688E
:1015C00000F02CFDB1B201F087FA009885B22069D5
:1015D00000F024FD294601F07FFA09B0F0BDC046B5
:1015E0000018002070B5044620787F26064001F0E0
:1015F00089FA002830D1002E2ED0E06900281DD0B5
:1016000000F00CFD0546052E02D1A07E002824D056
:10161000284602F0CDFD064612486521017031468C
:101620001C310A0A42708170032101F055FA1C2115
:10163000204601F051FAB1B228460BE00948652175
:101640000170002141701C258570032101F044FACE
:101650002046294601F040FA70BD20462946FFF792
:101660007BFF70BD00180020F0B581B00446002C4F
:101670002BD0174802688A4203D1164A13685B1CB4
:10168000136006680E43134A1568134F002901D0F2
:10169000066004E00023036013607B1C1E430068A7
:1016A000884201D000201060082D0BD3032128466A
:1016B00002F0BEFB012080073043002900D03046F5
:1016C000384000E030462946A04701B0F0BDC04692
:1016D0002C1E0020301E0020FFFFFF7FF0B581B0E0
:1016E0000F4E01243470B11C812047007A1C204623
:1016F00001F0DAF9054675707A1B7719F91C02209A
:1017000001F0D2F9B8702D187619F47001F0B6F91D
:101710003071902070710020B071E81D01B0F0BDF3
:10172000001D0020F0B583B00722104206D0074606
:10173000F8B2FFF733FA80B203B0F0BD0092012295
:101740001602594C594D074610E090205849087030
:101750004F708027029A17430221009802423846B0
:1017600004D0E5E7FFF7BAFF0146384610230340EF
:101770000A0402904DD0002B4BD12078072801930A
:101780000BD00A280FD0002800D187E0F8B289B228
:10179000FFF704FA002824D080E089B24C4878444E
:1017A000FFF744FC1DE08FB2301D80B2874278D82D
:1017B00053202870380A6870A9700321284601F068
:1017C0008BF93B48394601F087F90020207008E08A
:1017D000FFF76AFCB1B20022284601F0A9F9FFF731
:1017E00047FD20780028F3D100202070314908708F
:1017F00031490880029989069DD4FFF755FC02986B
:101800000106019B05D501201F4601F00BF93B465F
:101810000298002B05D140063BD4002020702549BA
:10182000087000202449088001F06CF9002801D1DB
:10183000FFF73AFCB1B2002728463A4601F078F9A2
:10184000022806D8A9786A7812020A43C01E90427C
:1018500009D1FFF70DFD20780028E5D01648008853
:101860000028E1D002E000202070DBE704221048CD
:1018700013A1FFF7F5FB002800D173E704220C4801
:1018800011A1FFF7EDFB002800D15EE70A480088B0
:1018900051E709480088094940184CE70920FFF73B
:1018A000F6FB0220FFF7F3FB221E002000180020A9
:1018B000001D00200C1E0020241E0020FBFF000045
:1018C000B001000000000000B0A700000000000010
:1018D0006FFAFFFFB0B582B001AC66212170002520
:1018E00065700121A170E0700421204601F0F4F838
:1018F000032120462A4601F01BF902B0B0BD0000CA
:10190000F0B581B007465F4C25461435382228468D
:101910003946FFF708FB2169A068002903D08847F2
:101920000346A06803E01C214143226853180026A7
:10193000002810D02269411E002A0FD008460097C7
:1019400037462E461D4690472B4635463E46009F5D
:101950000246A06806E03046324603E01C224A43B5
:1019600021688A186168491E884210D22169401C8A
:10197000002908D000951D461646884732462B465A
:10198000009D064603E01C214143206846187878F4
:1019900040280ADC202822DC102834D0202867D1F7
:1019A0005969002000296BD151E0802822DC4128B0
:1019B00033D042285CD159690020002960D1D96810
:1019C00000295DD16268511E012A59D0A2688A425D
:1019D00056D0F168002953D13069206348E02128AE
:1019E00031D0222844D1194614315A690020002AE6
:1019F0002FD145E0822835D0812839D1A168002037
:101A0000002935D13CE0D9680020002938D0216375
:101A1000587E00282CD0E0822AE059690020002955
:101A20002ED1D96800292BD1A168002928D061685E
:101A3000012925D0D168002922D1516900291FD15F
:101A40001069206314E059690020002918D0194654
:101A5000103108682063187E002809D0E082082031
:101A6000A08505E06068A168421E0020914207D071
:101A7000E268002A284603D01434184621469047CD
:101A800001B0F0BD341E0020F0B581B005463D4FD9
:101A90003969B868002902D08847064603E01C214E
:101AA00041433868461801243748854214DD3748D9
:101AB000854217D0364885421CD0364885425ED1D3
:101AC0003068002852D0B46800F0A8FA0146FA68DD
:101AD000204600F06DF851E02F4885420AD02A4890
:101AE00085424CD17968B8684A1E00240121904291
:101AF00005D344E00024E143B86800283FD04018F3
:101B0000B860264800240460254804602548046025
:101B1000254DAC602868002831D0E8692349884207
:101B20002DD000282BD0002420466968884226D278
:101B300000F0E8FF002822D1A868E9683826704341
:101B40002A681018002902D08847002807D00128E9
:101B500003D1A868464328688019FEF721FDA868CC
:101B6000401CA86029680029DFD108E070680028BF
:101B700005D000F053FA0146B0688847002420469B
:101B800001B0F0BD341E00200200008002000040C1
:101B9000010000400300008001000080281E00209A
:101BA0002C1E0020301E002000190020445010B0D0
:101BB000F0B583B002920D460190394E002000909E
:101BC0007060002D15D03C4979441C2728463A46C0
:101BD000FFF746FA00280CD0384C7C447068401C53
:101BE00070607843281821463A46FFF739FA0028F2
:101BF000F4D101990846013005D0706888420098F8
:101C000000D30846B060356000250298F060356169
:101C1000244C2B487844206009206060294878448F
:101C2000206129487844E06003202076E561204661
:101C3000183000F00DFFE06100F048F81A48056028
:101C40001A4805601A480560A5602068002824D05D
:101C5000E069184988421ED11FE0606885421CD2A5
:101C600000F050FF002818D1A068E16838256843CB
:101C700022681018002902D08847002807D00128C0
:101C800003D1A068454320684019FEF789FCA0688D
:101C9000451CA56020680028DFD103B0F0BDC04618
:101CA000341E002000190020281E00202C1E0020B9
:101CB000301E0020445010B0102C0000FE2B0000FD
:101CC000CC29000067FEFFFFD9FCFFFF7047000032
:101CD00083B0F0B58CB0044611A80EC0002C00D122
:101CE0008DE111A8079086E125460026014602E015
:101CF000A9194978761CCAB2002A01D0252AF7D141
:101D0000AC19002E0CD0C0B2FFF7E4FD012E06D0B6
:101D10000127E85DFFF7DEFD7F1CB742F9D121788E
:101D2000C8B2252800D066E1A819431C0021202054
:101D300004900A200691039105910422D5430222C2
:101D40001C462378641C00272D2B0DDC3946F8D067
:101D5000252B7FD02A2B00D0FAE02178732900D0E0
:101D6000F6E0114623464BE0472B14DC1A46303A86
:101D70000A2A34D2302B049D2A4600D11A46059FE8
:101D8000002F00D02A460A257D43EB18303B0593EF
:101D900004922346D1E7672B04DD722B08DD732BF9
:101DA00034D10AE0622B36DC482B43D1012002E01B
:101DB000682B45D1002003901020079B1F1D07971B
:101DC00003273940521C1F68012900D1BBE00229BA
:101DD00000D1BAE0032911462346AED0C1E02E2B34
:101DE00000D0B5E021782A2900D0B1E06278631CE8
:101DF0000121482A04D0682A02D0732A00D0A7E023
:101E0000079A141D07941268069296E7752B23D043
:101E1000782B18D09CE0632B00D18DE0642B00D090
:101E200096E00798011D07910068C11742184A40C3
:101E3000C00F16E0582B00D08AE00120039002E08A
:101E4000702B00D084E00798011D079102680020E4
:101E5000102607E0252073E00798011D079102680E
:101E600000200A26029001270692964212D80125E8
:101E700030460746314601F055FFA84209D13046A9
:101E800078430599491E0591069988423D46F0D947
:101E900000E02F460025E943029B002B00D11946A4
:101EA0000598019140180499CAB2302A06D1002B36
:101EB00004D008A92D230B7001250023811E0D29B4
:101EC0000CD8411E0AD008A82843029302F0CAF891
:101ED000029B0598401901994018451E002B03D01C
:101EE00008A82D2141556D1C002F1BD003980028F8
:101EF00002D04948784401E0464878440590069865
:101F0000394601F00FFF314601F092FF0598405C21
:101F100008A948553846314601F004FF6D1CBE4201
:101F20000746ECD9002D66D008AE3078FFF7D2FC1A
:101F3000761C6D1EF9D15EE00798011D07910078AF
:101F4000FFF7C8FC57E0069A11E0387800283FD028
:101F50002D48784440194079FFF7BCFC6D1CF7D13F
:101F600049E02A1DB9184978521C0029FAD1069275
:101F70001028039E1FD106981AE038780F250540D7
:101F80000009012E05D0002E0ED1C0B21F4E7E4496
:101F900002E0C0B21E4E7E44305CFFF79BFCE8B20C
:101FA000305C039EFFF796FC0698401E7F1C06904F
:101FB0000028E2D11FE000260698002810D0002556
:101FC000069E785DFFF786FC6D1CAE42F9D107E0F6
:101FD000281D0699451A2020FFF77CFC6D1CFAD1BC
:101FE0000599B14207D9881B05D0751A2020FFF743
:101FF00071FC6D1CFAD12078002800D074E60CB07A
:10200000F0BC01BC03B00047C228000066280000F5
:102010006E280000FA2800001029000080B504494D
:10202000884204D30349884201D200F005F880BDFC
:102030000000D0C0C04DD0C07A460249C91C891AE0
:10204000401A70473920D0C0F0B581B0107851786F
:10205000090201439078D3781B0203431804084314
:10206000374E354601C5111D202728463A46FEF752
:102070005AFF24360024304629463A46234601F0CA
:10208000D3FD2F488D300C223146FEF74CFF9920AE
:102090002B490C5464200C542AA039462A46FFF7D9
:1020A00017FE2CA040213246FFF712FE2D4D2F487F
:1020B00078442860052068602D48784428612D48C0
:1020C0007844E86003202876EC612846183000F058
:1020D000BFFCE861FFF7FAFDFFF730F9FFF734F9CD
:1020E000AC602868069E002824D0E8691E49884212
:1020F0001ED11FE0686884421CD200F003FD002856
:1021000018D1A868E968382460432A6810180029A3
:1021100002D08847002807D0012803D1A86844438B
:1021200028680019FEF73CFAA868441CAC602868CF
:102130000028DFD1306810210143316001B0F0BDCB
:10214000B0190020686173683A20202020252E2ACB
:1021500048200A00686578486173683A20252E2A6D
:1021600048200A0000190020445010B06C270000DD
:10217000BB000000C1020000B0B5012808DD022844
:1021800053D07449884250D07349884207D0DEE06A
:102190007249884200D186E0012800D0D7E064214E
:1021A0006F48435C0025002B2A4601D05A1E42543A
:1021B000D1B2411824318D300C22FEF7B4FEFFF766
:1021C000BDF8FFF7C1F86B4CA5602068002800D16E
:1021D000BDE0E0696849884200D1B8E0002800D13C
:1021E000B5E000206168884200D3B0E000F08AFCCE
:1021F000002800D0ABE0A068E16838256843226879
:102200001018002902D08847002807D0012803D1E0
:10221000A068454320684019FEF7C2F9A068401C39
:10222000A06021680029DDD191E064224C48815CE6
:10223000332901D8491C8154C9B2411824318D3049
:102240000C22FEF770FEFFF779F8FFF77DF8494C96
:102250000020A0602168002979D0E169464A9142B6
:102260001ED174E06168884271D200F04BFC0028F6
:102270006DD1A068E16838256843226810180029EC
:1022800002D08847002807D0012803D1A068454321
:1022900020684019FEF784F9A068401CA0602168FE
:1022A0000029DFD153E02E4D284665302DA10A22AA
:1022B000FEF739FE2A686F3500242846234601F0D0
:1022C000F3FC28182AA10222FEF72DFE294D2B48E7
:1022D0007844286005206860294878442861EC60CB
:1022E00003202876EC612846183000F0B1FBE86145
:1022F000FFF7ECFCFFF722F8FFF726F8AC60286840
:10230000002824D0E8691C4988421ED11FE0686873
:1023100084421CD200F0F6FB002818D1A868E968B6
:10232000382460432A681018002902D08847002802
:1023300007D0012803D1A868444328680019FEF794
:102340002FF9A868441CAC6028680028DFD1002061
:10235000B0BDC04602000040010000400300008004
:10236000B019002077697468204B6579202300003C
:102370003F00000000190020445010B084260000E7
:10238000D30000004178022907D001290DD1642132
:10239000064A515C002907D007E06421034A525CD9
:1023A0000021342A00D0014608467047B0190020A9
:1023B00080B50C49884205D00B4988420FD10D48A1
:1023C000002108E0094A02CA0948202301F048FB1D
:1023D000092000034021FEF7D3F8FEF7C7F80020DC
:1023E00080BDC0460200008001000080B0190020BE
:1023F000001D002085690000F0B581B014464EA094
:1024000051A155A2C123FFF763FC207861780A022D
:102410000243A078E1780902014309041143524EB6
:10242000354602C551A0FFF753FC207961790A02B5
:102430000243A079E17909020143090411434120D3
:102440008700F1514EA0FFF743FCF25908342846AB
:102450002146FEF768FDF2592120C00036180024FD
:1024600030462946234601F0DFFBCD2080003E495F
:1024700008180C223146FEF756FD0D2080013A4A1D
:1024800011460C546120C0000C50C95941A02A4685
:10249000FFF71EFC3448C059410042A03246FFF706
:1024A00017FC444D4548784428600520686044483E
:1024B0007844286143487844E86003202876EC613A
:1024C0002846183000F0C4FAE861FFF7FFFBFEF77A
:1024D00035FFFEF739FFAC602868069E002824D03F
:1024E000E869354988421ED11FE0686884421CD2E1
:1024F00000F008FB002818D1A868E9683824604378
:102500002A681018002902D08847002807D001281F
:1025100003D1A868444328680019FEF741F8A86869
:10252000441CAC6028680028DFD1306810210143CA
:10253000316001B0F0BDC0460A2573202D202573FF
:102540003A2564200A0000007372632F7369676E76
:1025500054786E2E6300000068616E646C65536988
:10256000676E54786E000000B01900206374782DF7
:102570003E6B6579496E6465783A202564200A00CF
:102580006374782D3E6D73674C656E3A2025642028
:102590000A0000006D73673A20202020252E2A486B
:1025A000200A00006D73674865783A20252E2A4876
:1025B000200A000000190020445010B0C625000079
:1025C0001501000033030000B0B5012808DD022822
:1025D00057D07949884254D07849884207D0E9E0F9
:1025E0007749884200D18FE0012800D0E2E06120E5
:1025F000C00074490B580025002B2A4601D05A1EF2
:102600000A50CD208000081889182122D20089188C
:102610000C22FEF788FCFEF791FEFEF795FE6F4C4C
:10262000A5602068002800D1C4E0E0696C498842B8
:1026300000D1BFE0002800D1BCE0002061688842E2
:1026400000D3B7E000F05EFA002800D0B2E0A06846
:10265000E1683825684322681018002902D08847AD
:10266000002807D0012803D1A068454320684019FD
:10267000FDF796FFA068401CA06021680029DDD10D
:1026800098E06120C0004F490A5893087C2B01D87C
:10269000521C0A50CD208000081889182122D2002F
:1026A00089180C22FEF73FFCFEF748FEFEF74CFEB1
:1026B0004A4C0020A060216800297BD0E169484A8B
:1026C00091421ED176E06168884273D200F01AFA16
:1026D00000286FD1A068E168382568432268101887
:1026E000002902D08847002807D0012803D1A0681C
:1026F000454320684019FDF753FFA068401CA060C7
:1027000021680029DFD155E0C32080002D4C20181E
:102710002DA10A22FEF707FC2E4825182268002466
:102720002846234601F0C0FA28182BA10222FEF702
:10273000FAFB2A4D2B4878442860052068602A4817
:1027400078442861EC6003202876EC612846183034
:1027500000F07EF9E861FFF7B9FAFEF7EFFDFEF74A
:10276000F3FDAC602868002824D0E8691C49884241
:102770001ED11FE0686884421CD200F0C3F9002813
:1027800018D1A868E968382460432A68101800291D
:1027900002D08847002807D0012803D1A868444305
:1027A00028680019FDF7FCFEA868441CAC60286886
:1027B0000028DFD10020B0BD020000400100004031
:1027C00003000080B019002077697468204B657998
:1027D00020230000160300003F0000000019002025
:1027E000445010B05E240000DD0000004178022952
:1027F00008D0012911D16121C900084A5158002986
:102800000AD00AE06121C900044A52587D218B0098
:1028100000219A4200D0014608467047B0190020B6
:1028200080B50D49884205D00C49884211D10E4827
:1028300000210AE041208000094A135802CA0948D1
:1028400001F00EF9092000034021FDF799FEFDF784
:102850008DFE002080BDC046020000800100008087
:10286000B0190020001D00208569000001DF7047BD
:1028700080B582B0009007486946FFF7F7FF01AACC
:1028800011600549884201D102B080BD0420FEF7E5
:10289000FEFBC04637010060C601009080B582B0E3
:1028A000064801A9FFF7E2FF6A4611600449884221
:1028B00001D102B080BD0420FEF7E9FB00020060F8
:1028C000F102009080B584B001900291074801A9FF
:1028D000FFF7CCFF03AA11600549884202D1039893
:1028E00004B080BD0420FEF7D2FBC0462C0500607A
:1028F0006705009080B586B001AF0FC7074801A9F2
:10290000FFF7B4FF05AA11600549884202D1059876
:1029100006B080BD0420FEF7BAFBC0462C0B006059
:10292000A00B009080B586B001AF0FC7074801A982
:10293000FFF79CFF05AA11600549884202D105985E
:1029400006B080BD0420FEF7A2FBC046ED2D00605E
:10295000492D009080B586B001AF0FC7074801A987
:10296000FFF784FF05AA11600549884202D1059846
:1029700006B080BD0420FEF78AFBC046EA2E006048
:10298000632E009080B586B001AF0FC7074801A93C
:10299000FFF76CFF05AA11600549884202D105982E
:1029A00006B080BD0420FEF772FBC0462E2F0060EB
:1029B000742F009080B58AB001AF0FC70C980590B6
:1029C0000D9806900E9807900F980890074801A957
:1029D000FFF74CFF09AA11600549884202D1099806
:1029E0000AB080BD0420FEF752FBC04641310060B2
:1029F0004A31009080B586B000AF0FC708980490A8
:102A000006486946FFF732FF05AA1160044988426B
:102A100001D106B080BD0420FEF739FBBA53006037
:102A20001E53009080B582B0009007486946FFF7BA
:102A30001DFF01AA11600549884201D102B080BD85
:102A40000420FEF724FBC046E16200606F62009044
:102A500080B582B0009007486946FFF707FF01AADA
:102A600011600549884202D1019802B080BD04205E
:102A7000FEF70DFB586400601F64009080B582B0C3
:102A8000074801A9FFF7F2FE6A461160054988422E
:102A900002D1009802B080BD0420FEF7F8FAC046CB
:102AA0006E6800607F68009080B584B000AB07C39B
:102AB00007486946FFF7DAFE03AA11600549884214
:102AC00002D1039804B080BD0420FEF7E0FAC046AE
:102AD000D47000608770009080B584B0019002913E
:102AE000064801A9FFF7C2FE03AA11600449884203
:102AF00001D104B080BD0420FEF7C9FA1C72006049
:102B0000F372009080B582B0074801A9FFF7AEFECE
:102B10006A4611600549884202D1009802B080BD22
:102B20000420FEF7B4FAC046CF7300607F730090B4
:102B300080B584B000AB07C307486946FFF796FE2F
:102B400003AA11600549884203D103A8008804B094
:102B500080BD0420FEF79BFAD17400602B740090B6
:102B6000024900200860024908607047C01E00202A
:102B7000C41E002010B507484F2101700024447086
:102B8000012181700221C1700421FFF7A5FF2046B9
:102B900010BDC0460018002070B582B06D464F26AB
:102BA0002E7000246C700220A8700320E8702C7135
:102BB00005212846FFF790FF2E706C700120A87049
:102BC000E87004212846FFF787FF204602B070BD59
:102BD00010B582B001A84F2101700024447001217A
:102BE00081700221C1700421FFF776FF204602B0F8
:102BF00010BD0000B0B582B00E48002404600E483D
:102C0000046068464F2505704470052585700425CD
:102C1000C570012505714171032A02D8D000074C07
:102C2000C44068468471C3710821FFF755FF002036
:102C300002B0B0BDC01E0020C41E0020010403026B
:102C400010B582B068464F220270002444700522FD
:102C500082700422C2700122027141718471C471B8
:102C60000821FFF739FF204602B010BDB0B582B091
:102C70000D46684650210170002444700321817084
:102C8000C5704021017144710621FFF725FF8020A6
:102C9000054201D1074800E0054801687F22154040
:102CA0000122AA400A430260204602B0B0BDC046DD
:102CB000C01E0020C41E002070B582B00D466846BC
:102CC000502101700024447003218170C57080265A
:102CD000067144710621FFF7FFFE354201D1074816
:102CE00000E0054801687F2215400122AA40914377
:102CF0000160204602B070BDC01E0020C41E00202E
:102D00008020014201D0064800E0044800687F228C
:102D1000114001228A400240D0B27047C41E0020F8
:102D2000C01E002010B582B068464F2202700024F9
:102D30004470022282700322C27001710521FFF7E4
:102D4000CBFE204602B010BDB0B582B01C46154681
:102D5000684650220270E21C130A43708270C170F0
:102D60002021017144710621FFF7B6FE2846214655
:102D7000FFF7B2FE002002B0B0BD10B582B06846C9
:102D8000502303700024447003238370C1703021EA
:102D9000017142710621FFF79FFE204602B010BD6F
:102DA00070B515460E4604460220002C11D04D2069
:102DB0008100204601F04CF9002E02D011200001C4
:102DC0002650FC200121215425702046FFF7C8FE23
:102DD0000020C0B270BD70B50446FC200121215412
:102DE0004520800025180026F0002858002806D02D
:102DF0004068FFF713F90246217920469047761C78
:102E0000032EF1D12046FFF7E3FE2046FFF7B2FE86
:102E1000002070BD0223002A07D00023022804D816
:102E2000C0000818452189004250D8B2704780B5CB
:102E3000FFF7B2FE002080BDF0B581B00C4605461C
:102E4000452080002F1800262846314600F07CF9E6
:102E5000002808D0F00038580068FFF7DFF8024675
:102E6000284621469047761C032EEDD1002001B064
:102E7000F0BDF0B581B00C460546452080002F1806
:102E800000262846314600F05FF9002808D0F000FF
:102E900038584068FFF7C2F8024628462146904756
:102EA000761C032EEDD1002001B0F0BD70B50446B4
:102EB0002120C600A519284600F0A7FBF420012117
:102EC000215087204000205AF8216050A15D1F202A
:102ED0000840022808D001280BD000280ED1204637
:102EE000294600F03FF90EE02046294600F002FB9B
:102EF00009E02046294600F0D8FA04E0802001408D
:102F00002046FFF7B3FE002070BDF0B583B00292FB
:102F10000446019100291ED0452080002518264630
:102F2000FC3600272046394600F00EF900280ED066
:102F3000F80028588069002809D03178032906D183
:102F4000FFF76CF8034620460199029A98477F1CC8
:102F5000032FE7D135E0F4202058032831D1902009
:102F600020588C21615822468C3281420AD9091A94
:102F70001160814200D301468AB22046029900F0D6
:102F8000C1FC1EE04520800026182746FC3700259E
:102F90002046294600F0D8F800280CD0E800305828
:102FA0000069002807D03978032904D1FFF736F8E3
:102FB0000146204688476D1C032DE9D1204600F0CC
:102FC000A8FC002003B0F0BDF0B581B0044600912C
:102FD00000291DD04520800027182546FC350026F5
:102FE0002046314600F0B0F800280DD0F0003858E7
:102FF0004069002808D02978032905D1FFF70EF889
:103000000246204600999047761C032EE8D151E0F5
:10301000F4202058022845D1E069256AA8420BD93E
:10302000401BE06113210A01A1584919A15082B245
:10303000204600F059FC35E0A6693046294600F0EC
:10304000F7FEAE420FD300290DD1F82020582746B5
:10305000F837864207D20025204629462A4600F046
:1030600043FC3D601EE04520800026182746FC37C3
:1030700000252046294600F067F800280CD0E8001B
:103080003058C068002807D03978032904D1FEF7EA
:10309000C5FF0146204688476D1C032DE9D1204617
:1030A00000F043FC012001026018615C012901D19C
:1030B00000210170002001B0F0BD70B504469020E1
:1030C000402121502162FC20012121544520800013
:1030D000261800252046294600F036F8002808D09A
:1030E000E80030584068FEF799FF024621792046F3
:1030F00090476D1C032DEDD1002070BD01740020A0
:103100007047002070470020704770B50446FC20CF
:10311000205C032816D14520800026180025204673
:10312000294600F011F8002809D0E8003058C0699D
:10313000002804D0FEF772FF0146204688476D1C28
:10314000032DECD1002070BD02460020022908D8D2
:10315000C80010184521890041580120002900D1DC
:103160000846704780B54A78042A08DD072A0FDC34
:10317000052A14D0062A1BD100F021F81DE0002AF0
:1031800010D0012A17D0032A12D100F03BF914E025
:10319000082A0AD0092A0BD100F0C3F80DE000F08C
:1031A0009BF80AE000F00BF907E000F0F1F804E00A
:1031B00000F071F901E000F044F9002080BDB0B5E5
:1031C00082B00D4604466988080A052813DC0128E8
:1031D0001CD0022825D003283BD1C8B202283DDCF0
:1031E000002865D001286DD0022832D111200001BD
:1031F0002058C0680EE006281ED0072826D00F28C9
:1032000027D1112000012058C06903E011200001DE
:1032100020580068FEF702FF0246207C01A9904773
:1032200034E0452080002058002100282FD0217C48
:10323000002925D0C06A24E0207C002809D145203F
:1032400080002058002804D0406B1AE0207C002821
:103250000FD02046294600F01EF927E003282CD085
:10326000042834D00528F4D11120000120588069A9
:10327000D0E74520800020580028EAD0006B00E00D
:10328000806AFEF7CBFE014601A88847014601A8E7
:103290000288002A0AD0E888002807D0824200D39A
:1032A000024601A80280204600F008FB02B0B0BD33
:1032B0001120000120584068ACE71120000120587F
:1032C0000069A7E71120000120588068A2E71120BB
:1032D0000001205840699DE770B5044688880028A1
:1032E0000BD1C888002808D148887F260640FC20DA
:1032F000205C2546FC35032803D1204600F0CBF89E
:1033000070BDFE202654F1B22046FFF70BFD20468B
:1033100000F0FFFA02200121002E00D1084628709B
:1033200070BD70B50D460446AE78022E1DD2FC204D
:10333000215C2046FC30032907D0022915D1002E3C
:1033400022D066600321017009E0002E12D060686F
:10335000864219D0C1B22046FFF78BFD6660204639
:103360003146FFF769FD02280ED12046294600F0BC
:1033700092F870BD02210170666020463146FFF769
:1033800078FD204600F0C5FA204600F0C2FA70BD74
:1033900080B5CA88012A0AD1FC22825C032A09D09E
:1033A000022A04D1002181600146083103E000F0C7
:1033B00072F880BD011D012200F080FA80BDB0B519
:1033C0000446FC20205CFE220240022A16D1012085
:1033D000E06041208000215825460C35032000295B
:1033E00005D0204600F0A1FAE16802200843E06021
:1033F00002222046294600F061FAB0BD204600F0C6
:103400004AF8B0BDB0B50D4604466888012817D10A
:103410004120800001212150287902280DD8C000C8
:103420002018452189004058002806D08068FEF702
:10343000F5FD0246204629469047204600F069FAED
:10344000B0BDB0B50D460446FC20205CFE21014015
:1034500002291BD1688801281CD14120800000214D
:103460002150287902280DD8C00020184521890054
:103470004058002806D08068FEF7D0FD024620465E
:1034800029469047204600F044FAB0BD2046294620
:1034900000F001F8B0BD10B504468021FFF7E6FB4F
:1034A00000212046FFF7E2FB10BDB0B50D460446F3
:1034B000FC20205C032817D12879022814D8C000EA
:1034C000201845218900405800280DD08068FEF75B
:1034D000A5FD0246204629469047E888002807D1E6
:1034E000204600F016FA03E020462946FFF7D3FFF6
:1034F0000020B0BD70B50D4604462878602101401B
:103500002E79202910D1022E0ED8F0002018452146
:1035100089004058002807D08068FEF77FFD0246EA
:103520002046294690476EE06878002817D0012889
:103530001ED0032867D1FC20205C03281CD168889A
:10354000002808D180203043802804D0204631460E
:10355000FFF78CFB2E79022E52D8F00043E0FC20BE
:10356000205C032818D0022811D170060AD14AE045
:10357000FC20205C032829D0022808D18020304379
:10358000802840D020463146FFF770FB3BE02046C4
:103590002946FFF780FF36E0254614352046843063
:1035A00080210E4200D1054620463146FFF7A8FB98
:1035B0000121002800D101467F200640300129501A
:1035C00029180222204600F079F91CE068880028BA
:1035D00019D1700614D020463146FFF76DFB2879CB
:1035E00002280DD8C0002018452189004058002825
:1035F00006D08068FEF712FD024620462946904715
:10360000204600F086F9002070BD0A7802704A78E2
:1036100042708A78CB781B02134343800A794B7936
:103620001B02134383808A79C97909021143C1803F
:103630007047F0B583B00D46044602A80027078006
:1036400001A80770297860200840002810D02028A1
:1036500038D1687801460A39022933D302281CD0B0
:1036600003281AD020462946FFF715FF022729E034
:1036700068780B2814D00A280FD0062822D1688831
:10368000000A002721280FD022283A46394616D1B1
:1036900002AE304600F052F80AE001A901220EE025
:1036A000204600F036F90DE002AE304600F032F868
:1036B00001463288E888824200D3024632802046A2
:1036C00000F0FCF8F8B203B0F0BDF0B581B00446EC
:1036D00082210326402532462B46FFF78BFA02272C
:1036E0002046394632462B46FFF784FA20463946B3
:1036F0002A46FFF742FB002001B0F0BD10B504469A
:103700008221FFF79DFA02212046FFF799FA002057
:1037100010BD0000014643208000064A125C0923C8
:103720000020002A00D003460B80002A01D1024865
:1037300078447047C81E00207C15000001464320D5
:103740008000064A125C22230020002A00D0034693
:103750000B80002A01D1024878447047C81E00201F
:103760005D15000080B5022903D103487844FDF7B8
:10377000FBFB002080BDC046A1DAFFFFB0B51446B8
:1037800002291BD102214022FFF7F7FA0C4D2878BD
:10379000002813D10220FDF7D9FC02460C487844DA
:1037A0002146FDF70DFB022808D1012028700548AD
:1037B0000721017004480068044908800020B0BD5A
:1037C0000C1E0020221E0020F81C0020241E0020B9
:1037D0006FDAFFFF12200880014878447047C04626
:1037E0005615000004200880014878447047C04600
:1037F000581500000E200880014878447047C046E4
:103800004C1500000E200880014878447047C046DF
:103810004A1500000A200880014878447047C046D5
:10382000481500000E200880014878447047C046C3
:103830002A1500000E200880014878447047C046D1
:103840001A15000070B504464D208500104800216F
:103850002A46FDF75FFB002C16D00D4C00262046B3
:1038600031462A46FDF756FB0A497944204632463E
:10387000FFF796FA084A7A4430462146FFF7CAFA1B
:103880002046FFF7D4FA70BD0148FFF7A4FA70BDD7
:10389000C81E00206E14000082140000292101803F
:1038A000014878447047C046CA1400000A210180CC
:1038B000014878447047C046E6140000B0B50C4695
:1038C000F421022343508261C26113210901445053
:1038D000016A8A4200D30A4693B20025294622464D
:1038E000FFF732FA2846B0BDB0B50C46016A8A42ED
:1038F00000D30A4693B2002529462246FFF724FA50
:103900002846B0BD10B500242146FFF736FA204600
:1039100010BD10B5F4210422425000242146224655
:103920002346FFF711FA204610BD10B5F4210522F9
:103930004250002421462246FFF71FFA204610BDC0
:10394000F0B58BB015460C460121C9070A462C324A
:1039500001922A4A029208430390049105910020A3
:1039600069460860212601A90522254B3046FFF74C
:1039700041F824A020273946214AFEF7A9F901ABD6
:1039800030461F493A46FEF7E5FF002D12D02126AA
:10399000002130460A462B46FEF7C4FF01AA012348
:1039A00030462946FEF7EEFF696808351AA02A4618
:1039B000FEF78EF9002C0CD001AA10462AC82AC4A2
:1039C0002AC82AC46AC86AC4083218A02021FEF78F
:1039D0007FF90B48002404222146FDF79BFA01A839
:1039E00028222146FDF796FA1B4878441B49794462
:1039F00014A22A23FEF76CF90BB0F0BD3901008048
:103A0000FC1F00206B6579536565643A0A20252EFA
:103A10002A48200A0A0000007075626C69634B65D1
:103A2000793A0A20252E2A48200A0A0070726976FF
:103A30006174654B65793A0A20252E2A48200A0AC6
:103A4000000000006465726976655A696C4B65799F
:103A5000506169720000000042090000B4130000C8
:103A6000F0B595B0069307920C4608902FA0FEF78C
:103A70002FF90120C00701462C310B912E490C91E2
:103A800004430D940E900F90002109916846016047
:103A900021270BA90522294C38462346FEF7AAFF09
:103AA00027A0202529462246FEF712F93B487844F4
:103AB0003B49794427A23223FEF70AF904220592F2
:103AC0000BAE384621463346FEF744FF32460832F5
:103AD00024A02946FEF7FCF827A0069F3946079C3C
:103AE0002246FEF7F5F809980A900AA86946482583
:103AF0000F60089F4F608D60C8601D208102032207
:103B000030462346FEF756FF1FA029463A46FEF7E9
:103B1000DFF80A48099C2146059AFDF7FBF928229F
:103B200030462146FDF7F6F915B0F0BD696E6465C3
:103B3000783A2025640A000039010080FC1F00202B
:103B40006B6579536565643A20202020252E2A482C
:103B5000200A0000646572697665416E6453696786
:103B60006E000000707269766174654B65793A2069
:103B7000252E2A48200A0000686173683A20252E05
:103B80002A48200A000000007369676E617475722C
:103B9000653A20252E2A480A000000007E08000011
:103BA000F012000070B588B004464A6808316D46CE
:103BB0002026084611462A463346FEF79BFE06A0FD
:103BC00031462A46FEF784F814222046294600F0A2
:103BD00045FA08B070BDC0466469676573743A20E1
:103BE000252E2A480A00000010B50A46503100234D
:103BF000CC1A2478C4545B1C202BF9D12821515CA9
:103C0000C90703D0C17F80230B43C377083202A0CA
:103C10002021FEF75DF810BD6473743A0A20252E4A
:103C20002A48200A0A000000F0B584B001910390F0
:103C300002921A43002A25D00024264627460093E4
:103C40000198825D120913A18A5C21467400039BCE
:103C50001A5501252C43825D0F2010400DA2105CE7
:103C600018550C46761C6741029886422A4600D3B6
:103C70002246009B9F4200D325469F4200D02A4601
:103C8000002ADDD10298410000220398425404B07A
:103C9000F0BDC046303132333435363738396162A1
:103CA0006364656600000000F0B583B011461943F7
:103CB00000292ED0029000240092174601931E4640
:103CC00025460A2238463146234600F0B7F801223D
:103CD0000A2F00D32246002E00D022466D1C002A57
:103CE00007460E46EDD0681E002810DB0298441EE1
:103CF0002E460199009F0A220023384600F09EF8C4
:103D0000074630201043A055761E002EF3DC0298A3
:103D100002E030210170012500214155284603B001
:103D2000F0BD0000002243088B4274D303098B428C
:103D30005FD3030A8B4244D3030B8B4228D3030C7B
:103D40008B420DD3FF22090212BA030C8B4202D31D
:103D50001212090265D0030B8B4219D300E0090A45
:103D6000C30B8B4201D3CB03C01A5241830B8B424E
:103D700001D38B03C01A5241430B8B4201D34B0337
:103D8000C01A5241030B8B4201D30B03C01A52419C
:103D9000C30A8B4201D3CB02C01A5241830A8B4221
:103DA00001D38B02C01A5241430A8B4201D34B020A
:103DB000C01A5241030A8B4201D30B02C01A52416E
:103DC000CDD2C3098B4201D3CB01C01A5241830922
:103DD0008B4201D38B01C01A524143098B4201D35C
:103DE0004B01C01A524103098B4201D30B01C01A87
:103DF0005241C3088B4201D3CB00C01A5241830801
:103E00008B4201D38B00C01A524143088B4201D32D
:103E10004B00C01A5241411A00D20146524110468D
:103E20007047FFE701B5002000F006F802BDC0466C
:103E30000029F7D076E770477047C046002B11D1B4
:103E4000002A0FD1002900D1002802D00021C94347
:103E5000081C07B4024802A14018029003BDC046E6
:103E6000D9FFFFFF03B4684601B5029800F006F8D9
:103E7000019B9E4602B00CBC7047C046F0B54D4653
:103E8000564644465F46F0B4924683B004000D00A7
:103E900099468B422FD82CD04946504600F0AEF8B8
:103EA00029000600200000F0A9F8331A9846203BAC
:103EB0009B4600D574E053465A4693401F00534634
:103EC000424693401E00AF4229D826D05B46A41B31
:103ED000BD41002B00DA79E000220023009201931B
:103EE00001235A4693400193012342469340009395
:103EF00019E08242D0D900220023009201930C9B4A
:103F0000002B01D01C605D600098019903B03CBC9F
:103F100090469946A246AB46F0BDA342D6D90022B0
:103F20000023009201934346002BE8D0FB07720860
:103F30001A4346467B080EE0AB4201D1A2420CD8A0
:103F4000A41A9D41012024196D410021013E24182D
:103F50004D41002E06D0AB42EED9013E24196D41F1
:103F6000002EF8D15B460098019900196941002B99
:103F700022DB2B005A46D3402A004446E2401C0074
:103F80005B461500002B2CDB26009E4033002600EC
:103F90004746BE403200801A994100900191AEE739
:103FA000424620239B1A5246DA40414613004A46B5
:103FB0008A4017001F4382E7424620239B1A2A00AB
:103FC00046469A402300F3401343D5E74246202358
:103FD00000219B1A0022009101920122DA400192F5
:103FE00082E74246202326009B1ADE402F00B4467B
:103FF000974066463B003343C9E7C04610B50029E9
:1040000003D100F007F8203002E0081C00F002F8AD
:1040100010BDC0461C2101231B04984201D3000C93
:1040200010391B0A984201D3000A08391B0998422B
:1040300001D30009043902A2105C40187047C04641
:104040000403020201010101000000000000000061
:1040500010B5002200F006F810BDC04610B500F003
:1040600009F810BD130010B50A00190000F040F85F
:1040700010BDC04670B50F2A32D90C0004430B00A6
:10408000A40731D115000400103D2D0901352D0183
:1040900049191E6826605E6866609E68A660DE68D4
:1040A0001033E66010349942F3D10F2345191340C1
:1040B000032B1BD91C1F0023A4080134A400CE58D5
:1040C000EE5004339C42FAD103232D1909191A40EA
:1040D00005D00023CC5CEC5401339A42FAD170BD78
:1040E0000500002AF5D1FAE70500F2E71A00F8E723
:1040F00070B583073FD0541E002A3BD0CEB20300D8
:10410000032503E0621E002C34D0140001335A1E34
:1041100016702B42F6D1032C24D9FF250D402A021C
:1041200015432A0415430F2C11D92600103E3609D9
:10413000013636011A009B19156055609560D560EF
:1041400010329342F8D10F221440032C0AD9261FB3
:10415000B6080136B6001A009B1920C29342FCD162
:1041600003221440002C05D0C9B21C191970013368
:104170009C42FBD170BD14000300CCE7F0C0414667
:104180004A4653465C466D4676467EC02838F0C89F
:104190000020704710307CC890469946A246AB4636
:1041A000B54608C82838F0C8081C00D101201847B7
:1041B00010B5830727D00378002B26D003000321F6
:1041C00002E01A78002A1CD001330B42F9D1196899
:1041D0000F4A104C8A188A4322420FD104331968BF
:1041E0000B4A8A188A43224208D104331968084AC4
:1041F0008A188A432242F1D000E001331A78002A5B
:10420000FBD1181A10BD0300E1E70020FAE7C04611
:10421000FFFEFEFE80808080030000000000800022
:10422000200000000100000000000000FFFFFF0070
:10423000000000000000000000000000000000007E
:10424000000000000000000000000000000000006E
:10425000050003000C00070007000000000000003C
:10426000FFFFFF000000000000000700000000004A
:10427000000000000000000000000000000000003E
:104280000000000000000000050075000D0008009F
:104290000600000000000000FFFFFF00000000001B
:1042A0000000060000000000000000000000000008
:1042B00000000000000000000000000000000000FE
:1042C000070000000C0080000C000000000000004F
:1042D000FFFFFF00000000000A800000B619002068
:1042E00000000000000000000000000000000000CE
:1042F0000000000000000000070000001A0080001D
:104300000C00000000000000FFFFFF0000000000A4
:104310000A800000DE1900200000000000000000FC
:10432000000000000000000000000000000000008D
:104330000A2573202D2025733A2564200A00737204
:10434000632F6765745075626C69634B65792E6382
:1043500000436F6D706172653A0000000300000059
:1043600000008000200000000100000000000000AC
:10437000FFFFFF0000000000000000000000000040
:10438000000000000000000000000000000000002D
:1043900000000000050103000C00070007000000FA
:1043A00000000000FFFFFF00000000000000090007
:1043B00000000000000000000000000000000000FD
:1043C0000000000000000000000000000502750071
:1043D0000D0008000600000000000000FFFFFF00C5
:1043E0000000000000000A000000000000000000C3
:1043F00000000000000000000000000000000000BD
:1044000000000000070000000C0080000C0000000D
:1044100000000000FFFFFF00000000000A80000015
:104420005143D0C000000000000000000000000068
:104430000000000000000000000000000700000075
:104440001A0080000C00000000000000FFFFFF00C9
:10445000000000000A800000531A00200000000045
:10446000000000000000000000000000000000004C
:104470000000000000000000FFFFFF00E001FEC19F
:10448000FD387F06DF81FFC47FF3FFBC1FE7E7F144
:104490003FF80778000000000E0000000E0000004A
:1044A000010000007444D0C07C44D0C00000000073
:1044B000FFFFFF00E001FEC1FF387006D8797E9E45
:1044C0009FE7E7B901E6C0F13FF807780000000078
:1044D0000E0000000E00000001000000AC44D0C03F
:1044E000B444D0C000000000000000000000000044
:1044F000000000005445D0C06045D0C0000000005E
:104500009045D0C000000000000000000000000046
:104510006C45D0C00000000000000000000000005A
:10452000252AD0C000000000D044D0C07245D0C0C1
:1045300000000000321D000000000000000000002C
:10454000000000000000000000000000000000006B
:104550000000000057616974696E6720666F720021
:10456000636F6D6D616E64732E2E2E0041626F75E8
:1045700074005175697420617070005665727369BA
:104580006F6E00302E312E30004261636B000000F0
:10459000000000000000000000000000000000001B
:1045A0007B45D0C08345D0C000000000E444D0C0AB
:1045B00000000000000000009844D0C08945D0C031
:1045C000000000003D280000000000000000000086
:1045D00000000000000000000000000000000000DB
:1045E00000000000038000000000800020000000A8
:1045F0000100000000000000FFFFFF0000000000BD
:1046000000000000000000000000000000000000AA
:104610000000000000000000000000000581030011
:104620000E0007000400000000000000FFFFFF0074
:104630000000000000000B0000000000000000006F
:10464000000000000000000000000000000000006A
:1046500000000000058276000E0007000400000044
:1046600000000000FFFFFF000000000000000C0041
:10467000000000000000000000000000000000003A
:1046800000000000000000000000000007410E00D4
:10469000030064000C00000000000000FFFFFF00AA
:1046A000000000000A800000000000000000000080
:1046B00000000000000000000000000000000000FA
:1046C0000000000007420E00230064000C00000000
:1046D00000000000FFFFFF00000000000A80000053
:1046E00000000000000000000000000000000000CA
:1046F00000000000000000000000000005100E0097
:10470000090000000000000000000000FFFFFF00A3
:104710000000000000000000000000000000000099
:104720000000000000000000000000000000000089
:104730000000000007200E00130064000C000000C1
:1047400000000000FFFFFF000000000008800000E4
:104750000000000000000000000000000000000059
:1047600000000000000000000000000007210E0013
:104770000C0064000C00000000000000FFFFFF00C0
:1047800000000000088000000000000000000000A1
:104790000000000000000000000000000000000019
:1047A0000000000007220E001A0064000C00000048
:1047B00000000000FFFFFF00000000000880000074
:1047C00000000000000000000000000000000000E9
:1047D00000000000000000000000000000000000D9
:1047E00000000000000000000000000000000000C9
:1047F000000000000000000030313233343536371D
:104800003839616263646566303132333435363746
:1048100038394142434445464552524F5200000008
:1048200003000000000080002000000001000000E4
:1048300000000000FFFFFF0000000000000000007B
:104840000000000000000000000000000000000068
:104850000000000000000000050103000C0007003C
:104860000700000000000000FFFFFF000000000044
:10487000000009000000000000000000000000002F
:104880000000000000000000000000000000000028
:10489000050275000D000800060000000000000081
:1048A000FFFFFF000000000000000A000000000001
:1048B00000000000000000000000000000000000F8
:1048C0000000000000000000070000000C00800055
:1048D0000C00000000000000FFFFFF0000000000CF
:1048E0000A8000003849D0C000000000000000002D
:1048F00000000000000000000000000000000000B8
:10490000070000001A0080000C00000000000000FA
:10491000FFFFFF00000000000A8000003D1A002099
:104920000000000000000000000000000000000087
:104930000000000000000000436F6D706172652090
:104940004861736865733A005369676E20746869DB
:1049500073204861736800000300000000008000BD
:10496000200000000100000000000000FFFFFF0029
:104970000000000000000000000000000000000037
:104980000000000000000000000000000000000027
:10499000050003000C0007000700000000000000F5
:1049A000FFFFFF0000000000000007000000000003
:1049B00000000000000000000000000000000000F7
:1049C0000000000000000000050075000D00080058
:1049D0000600000000000000FFFFFF0000000000D4
:1049E00000000600000000000000000000000000C1
:1049F00000000000000000000000000000000000B7
:104A0000070000000C0080000C0000000000000007
:104A1000FFFFFF00000000000A8000004849D0C0EE
:104A20000000000000000000000000000000000086
:104A30000000000000000000070000001A008000D5
:104A40000C00000000000000FFFFFF00000000005D
:104A50000A800000151A002000000000000000007D
:104A60000000000000000000000000000000000046
:104A70000300000000008000200000000100000092
:104A800000000000FFFFFF00000000000000000029
:104A90000000000000000000000000000000000016
:104AA0000000000000000000050103000C000700EA
:104AB0000700000000000000FFFFFF0000000000F2
:104AC00000000900000000000000000000000000DD
:104AD00000000000000000000000000000000000D6
:104AE000050275000D00080006000000000000002F
:104AF000FFFFFF000000000000000A0000000000AF
:104B000000000000000000000000000000000000A5
:104B10000000000000000000070000000C00800002
:104B20000C00000000000000FFFFFF00000000007C
:104B30000A8000003849D0C00000000000000000DA
:104B40000000000000000000000000000000000065
:104B5000070000001A0080000C00000000000000A8
:104B6000FFFFFF00000000000A8000003D1A002047
:104B70000000000000000000000000000000000035
:104B800000000000000000005369676E207468692F
:104B9000732054786E0000000300000000008000C5
:104BA000200000000100000000000000FFFFFF00E7
:104BB00000000000000000000000000000000000F5
:104BC00000000000000000000000000000000000E5
:104BD000050003000C0007000700000000000000B3
:104BE000FFFFFF00000000000000070000000000C1
:104BF00000000000000000000000000000000000B5
:104C00000000000000000000050075000D00080015
:104C10000600000000000000FFFFFF000000000091
:104C2000000006000000000000000000000000007E
:104C30000000000000000000000000000000000074
:104C4000070000000C0080000C00000000000000C5
:104C5000FFFFFF00000000000A800000884BD0C06A
:104C60000000000000000000000000000000000044
:104C70000000000000000000070000001A00800093
:104C80000C00000000000000FFFFFF00000000001B
:104C90000A800000BC1C0020000000000000000092
:104CA0000000000000000000000000000000000004
:104CB00009211101000122220006A0FF0901A10122
:104CC0000903150026FF00750895408108090415A1
:104CD0000026FF00750895409108C000D537D0C068
:104CE000E537D0C0F537D0C00538D0C01538D0C0B2
:104CF0002538D0C03538D0C000000000CB36D0C039
:104D0000FD36D0C03336D0C00000000000000000E7
:104D10006537D0C07D37D0C0000000000000000023
:104D2000000000009D38D0C09D38D0C09D38D0C054
:104D3000AD38D0C01201000200000040972C0100E5
:104D4000000201020301040309040E034C00650084
:104D500064006700650072000E034E0061006E0083
:104D60006F00200053000A03300030003000310093
:104D700009022900010102C03209040000020300F7
:104D800000020921110100012222000705820340CF
:104D90000001070502034000010000000A060002AE
:104DA0000000004001007372632F7A696C6C6971B6
:104DB000612E630000000000000000000000000001
:04000005C0D0000166
:00000001FF
